{
  "address": "0xf112F27f7Ae9575D8392DCb13AE2Da875B2cf449",
  "abi": [
    {
      "inputs": [
        {
          "internalType": "contract IEAS",
          "name": "__eas",
          "type": "address"
        }
      ],
      "stateMutability": "nonpayable",
      "type": "constructor"
    },
    {
      "inputs": [],
      "name": "InvalidEAS",
      "type": "error"
    },
    {
      "inputs": [
        {
          "internalType": "address",
          "name": "",
          "type": "address"
        }
      ],
      "name": "Participant",
      "outputs": [
        {
          "internalType": "uint256",
          "name": "",
          "type": "uint256"
        }
      ],
      "stateMutability": "view",
      "type": "function"
    },
    {
      "inputs": [],
      "name": "_test",
      "outputs": [
        {
          "internalType": "uint256",
          "name": "",
          "type": "uint256"
        }
      ],
      "stateMutability": "view",
      "type": "function"
    },
    {
      "inputs": [
        {
          "internalType": "address",
          "name": "participant",
          "type": "address"
        },
        {
          "internalType": "bool",
          "name": "validate",
          "type": "bool"
        }
      ],
      "name": "attest",
      "outputs": [
        {
          "internalType": "bytes32",
          "name": "",
          "type": "bytes32"
        }
      ],
      "stateMutability": "nonpayable",
      "type": "function"
    },
    {
      "inputs": [],
      "name": "eas",
      "outputs": [
        {
          "internalType": "address",
          "name": "",
          "type": "address"
        }
      ],
      "stateMutability": "view",
      "type": "function"
    },
    {
      "inputs": [],
      "name": "schemaID",
      "outputs": [
        {
          "internalType": "bytes32",
          "name": "",
          "type": "bytes32"
        }
      ],
      "stateMutability": "view",
      "type": "function"
    },
    {
      "inputs": [],
      "name": "schemaRegistry",
      "outputs": [
        {
          "internalType": "address",
          "name": "",
          "type": "address"
        }
      ],
      "stateMutability": "view",
      "type": "function"
    },
    {
      "inputs": [],
      "name": "testing",
      "outputs": [
        {
          "internalType": "uint256",
          "name": "",
          "type": "uint256"
        }
      ],
      "stateMutability": "view",
      "type": "function"
    }
  ],
  "transactionHash": "0xf29c3af88ea3fb6b3ed03480cb456709a52466a029698fba0a539530a9487201",
  "args": [
    "0xf5Ac0b87325Bf1B3Eee525EB9646faFD69D2FedC"
  ],
  "numDeployments": 2,
  "solcInputHash": "4901d015bbb5d1a75d176226a062ff69",
  "bytecode": "0x60a0604052600180546001600160a01b031990811673aef4103a04090071165f78d45d83a0c0782c2b2a17909155600280549091167355d26f9ae0203ef95494ae4c170ed35f4cf777971790557f70bf24eec37bcd05936ae0a09576601c0aab89c6fe7a8f6423e6116de038b7b460035534801561007c57600080fd5b5060405161048038038061048083398101604081905261009b916100c8565b6001600160a01b0381166100c2576040516341bc07ff60e11b815260040160405180910390fd5b506100f8565b6000602082840312156100da57600080fd5b81516001600160a01b03811681146100f157600080fd5b9392505050565b608051610370610110600039600050506103706000f3fe608060405234801561001057600080fd5b506004361061007d5760003560e01c80638d03b1021161005b5780638d03b102146100f3578063a6246d09146100fb578063b355d76414610104578063fd1308a61461011757600080fd5b80634441bbd91461008257806356391d61146100b25780638150864d146100e0575b600080fd5b600254610095906001600160a01b031681565b6040516001600160a01b0390911681526020015b60405180910390f35b6100d26100c0366004610216565b60006020819052908152604090205481565b6040519081526020016100a9565b600154610095906001600160a01b031681565b6004546100d2565b6100d260045481565b6100d2610112366004610231565b610120565b6100d260035481565b6001546040805180820182526003548152815160c08101835260008082526020808301829052828501829052606080840183905285516001600160a01b038a81168285015289151582890152875180830389018152919092018752608085015260a0840183905290840192909252925163f17325e760e01b81529293169163f17325e7916101b09160040161026d565b6020604051808303816000875af11580156101cf573d6000803e3d6000fd5b505050506040513d601f19601f820116820180604052508101906101f39190610321565b9392505050565b80356001600160a01b038116811461021157600080fd5b919050565b60006020828403121561022857600080fd5b6101f3826101fa565b6000806040838503121561024457600080fd5b61024d836101fa565b91506020830135801515811461026257600080fd5b809150509250929050565b600060208083528351818401528084015160408085015260018060a01b03815116606085015267ffffffffffffffff828201511660808501526040810151151560a0850152606081015160c0850152608081015160c060e086015280518061012087015260005b818110156102f157828101850151878201610140015284016102d4565b5060008682016101409081019190915260a09390930151610100870152601f01601f191690940101949350505050565b60006020828403121561033357600080fd5b505191905056fea26469706673582212204dfc16ce73c8547b0b99e32a8916bcc2adfa2ce5ef51ca66ef4bd39bcc5c928764736f6c63430008170033",
  "devdoc": {
    "kind": "dev",
    "methods": {},
    "version": 1
  },
  "userdoc": {
    "kind": "user",
    "methods": {},
    "version": 1
  },
  "storageLayout": {
    "storage": [
      {
        "astId": 651,
        "contract": "contracts/CampusOnchain.sol:CampusOnchain",
        "label": "Participant",
        "offset": 0,
        "slot": "0",
        "type": "t_mapping(t_address,t_uint256)"
      },
      {
        "astId": 654,
        "contract": "contracts/CampusOnchain.sol:CampusOnchain",
        "label": "eas",
        "offset": 0,
        "slot": "1",
        "type": "t_address"
      },
      {
        "astId": 657,
        "contract": "contracts/CampusOnchain.sol:CampusOnchain",
        "label": "schemaRegistry",
        "offset": 0,
        "slot": "2",
        "type": "t_address"
      },
      {
        "astId": 660,
        "contract": "contracts/CampusOnchain.sol:CampusOnchain",
        "label": "schemaID",
        "offset": 0,
        "slot": "3",
        "type": "t_bytes32"
      },
      {
        "astId": 667,
        "contract": "contracts/CampusOnchain.sol:CampusOnchain",
        "label": "_test",
        "offset": 0,
        "slot": "4",
        "type": "t_uint256"
      }
    ],
    "types": {
      "t_address": {
        "encoding": "inplace",
        "label": "address",
        "numberOfBytes": "20"
      },
      "t_bytes32": {
        "encoding": "inplace",
        "label": "bytes32",
        "numberOfBytes": "32"
      },
      "t_mapping(t_address,t_uint256)": {
        "encoding": "mapping",
        "key": "t_address",
        "label": "mapping(address => uint256)",
        "numberOfBytes": "32",
        "value": "t_uint256"
      },
      "t_uint256": {
        "encoding": "inplace",
        "label": "uint256",
        "numberOfBytes": "32"
      }
    }
  }
}